:02000004080AE8
:1000000000000A0864110A08000006000800050143
:080010000402BD040000000021
:10001800280E0A0809480A4908B5884205D0094A3D
:10002800824202D0121A00F0B7FE0748074A0021A0
:10003800121A00F0BCFE064808BD00BF00030020ED
:10004800D4100A086803002068030020D0040020A8
:10005800D004002070B500F06DFA074B074C1E461F
:10006800E41AA4080025A54204D056F8253098477C
:100078000135F8E770BD00BF9C100A08D0100A08C7
:1000880000F013B808B500F011F8BDE8084000F01A
:1000980013BA00F01BB900F021B90078B0FA80F06B
:1000A800400970470123037070477047704700F09C
:1000B80001B8000008B5024B1B681B68019308BD16
:1000C800B001060808B5024B1B68DB69019308BD3F
:1000D800B401060808B5024B1B685B68019308BDAC
:1000E8009C01060808B5024B1B685B69019308BDB3
:1000F8009C01060808B5024B1B681B6B019308BDE1
:10010800D001060808B5024B1B689B69019308BD1E
:10011800C401060808B5024B1B685B6A019308BD59
:10012800C401060808B5024B1B689B6A019308BD09
:10013800C401060808B5024B1B68DB6A019308BDB9
:10014800C401060808B5024B1B681B6B019308BD68
:10015800C401060808B5024B1B685B6B019308BD18
:10016800C401060808B5024B1B681B6C019308BD47
:10017800C401060808B5024B1B681B68019308BD3B
:10018800D801060808B5024B1B681B69019308BD16
:10019800D801060808B5024B1B685B69019308BDC6
:1001A800D801060808B5024B1B689B69019308BD76
:1001B800D801060808B5024B1B68DB69019308BD26
:1001C800D801060808B5024B1B681B6A019308BDD5
:1001D800D801060808B5024B1B689B6C019308BD43
:1001E800C001060808B5024B1B685B68019308BD8F
:1001F800A401060808B5034B1B68D3F89030019397
:1002080008BD0000A401060808B5034B1B68D3F815
:100218009C30019308BD0000A401060808B5024BF4
:100228001B685B68019308BDC801060808B5024B46
:100238001B689B68019308BDC801060808B5024BF6
:100248001B68DB68019308BDC801060808B5024BA6
:100258001B681B69019308BDC801060808B5024B55
:100268001B685B69019308BDC801060808B5024B05
:100278001B689B69019308BDC801060808B5024BB5
:100288001B68DB69019308BDC801060808B5024B65
:100298001B681B6A019308BDC801060808B5024B14
:1002A8001B681B6B019308BDC801060808B5024B03
:1002B8001B685B6B019308BDC801060808B5024BB3
:1002C8001B68DB6B019308BDCC01060808B5024B1F
:1002D8001B681B68019308BDA001060808B5024BFE
:1002E8001B685B68019308BDA0010608704710B53C
:1002F8000446102100F0F7FB204610BD70B50446F7
:100308000E46074B0025036040F80C5FFFF7F2FE2E
:1003180030462671FFF7D6FEA560204670BD00BFA7
:10032800440E0A084FF6FF72034B002018705880DD
:100338009A80FFF757BF00BF6C030020F8B5064648
:100348000D468F180024BD420CD0336815F8011BE8
:100358009B6830469847002801DB0444F3E7002CEB
:1003680008BF04462046F8BD70B505460C46084649
:1003780049B100F04DFD2B68024621462846BDE8EC
:100388007040DB68184770BD03689B681847012AEE
:1003980098BF0A2230B50B468BB000218DF8241087
:1003A8000DF12304B3FBF2F505FB1233DBB2092B85
:1003B80094BF30333733DBB2214604F801392B467A
:1003C800002DEFD1FFF7D0FF0BB030BD10B422B92C
:1003D8000368C9B29B6810BC1847D2B210BCFFF7BB
:1003E800D6BFFFF7F3BF00231A4619464068FFF748
:1003F80035BF0000014A024B1A607047070F0A0810
:1004080074030020024B1A68024B1A60704700BF41
:10041800000300207803002010B58368044613B158
:10042800032201469847204610BD10B50446FFF741
:10043800F3FF204610BD0000034800238360034AF1
:10044800034900F04BBB00BF7C0300206803002079
:1004580033040A0808B5144B33B100F059F903689E
:100468001B699847002816DC104B33B100F0FCF9E3
:1004780003681B699847002810DC0D4B0BB1AFF3DC
:1004880000800C4B7BB100F071F903681B69984739
:10049800002806DC08BDAFF30080E5E7AFF3008075
:1004A800EBE7AFF3008008BD00000000000000008B
:1004B800000000000000000008B5FFF7CBFFFFF7C1
:1004C80011FE014B186008BD140400200248034ABD
:1004D8000349121A00F060BC004002400440024088
:1004E800D0100A0807B5002300931A466FF0770169
:1004F800FFF78AFE03B05DF804FB000007B54388E8
:100508000A2B08D0502B09D1094B1B683BB103B00B
:100518005DF804EB1847FFF7E5FF06E000230093BA
:100528001A466FF07701FFF76FFE03B05DF804FB22
:100538008C03002038B5104C104D2368AB42104B8B
:100548000CBF012200221A7002D0FFF7BFFF2560FE
:10055800FFF7C0FD044600F033FC0A4B13B12046F8
:10056800AFF3008000210748FFF7A8FEBDE8384038
:1005780000210548FFF73EBE004002401E1C279A96
:10058800900300200000000005050A08704710B518
:100598000446182100F0A7FA204610BDF8B50F460A
:1005A80000F10806051D002416F8011D0A22384628
:1005B800FFF717FFAE42044407D0002CF4D02E21D9
:1005C8003846FFF7E1FE0444EEE72046F8BD000098
:1005D80010B50446044B112240F8043B002100F0FA
:1005E800E6FB204610BD00BF640F0A080346074A11
:1005F80010B543F8042B01F1100251F8044B914255
:1006080043F8044BF9D10A781A7010BD640F0A0830
:10061800024A41600260042202757047640F0A08AA
:1006280010B59DF8084044EA032343EA024242EA2F
:10063800016104234160037510BD000037B5044D06
:1006480005609DF818500095FFF7EAFF03B030BD2C
:10065800640F0A0841747047704708B50021007C90
:10066800FFF7A0FD30EA200028BF4FF0FF3008BD9B
:1006780008B50121007CFFF795FD30EA200028BF6E
:100688004FF0FF3008BD08B5007CFFF783FD20EA76
:10069800E07008BD08B5007CFFF774FD20EAE07043
:1006A80008BD007CFFF78EBD10B50446142100F08C
:1006B8001AFA204610BD38B50446007C0D46FFF7EF
:1006C80069FD002801DC607C28B12946207CFFF701
:1006D80071FD20EAE07038BD10B504460023636060
:1006E8004FF47A73A360054B0846236001232174F5
:1006F80063741146FFF73EFD204610BD780F0A08C7
:1007080010B504461422002100F051FB204610BD0C
:1007180030B50E4D87B001A8FFF7F2FF296811F038
:10072800010410D12846FFF7B8FC60B101AA2146A0
:100738000748FFF7D1FF2846FFF7B4FC054A0649EA
:10074800034800F0CBF9024807B030BD94030020FD
:100758009C0300206803002061060A0810B50446BF
:100768001422002100F023FB204610BD10B50E4CCA
:1007780086B001A8FFF7F2FF2368DB0710D42046F4
:10078800FFF78BFC60B101AA01210848FFF7A4FF1D
:100798002046FFF787FC064A0649044800F09EF900
:1007A800024806B010BD00BF98030020B003002027
:1007B8006803002061060A0870474174704708B54D
:1007C800007CFFF7CFFC20EAE07008BD08B5007C8C
:1007D800FFF7A8FC20EAE07008BD08B5007CFFF729
:1007E800B1FC30EA200028BF4FF0FF3008BD08B543
:1007F800007CFFF79FFC30EA200028BF4FF0FF3055
:1008080008BD007CFFF7A6BC10B50446142100F013
:100818006AF9204610BD70B5457C04460E4625B9D8
:10082800007CFFF79FFC002805DD3146207CBDE8F1
:100838007040FFF76FBC284670BD000010B5044635
:1008480008461146002262604FF47A72A260054A97
:1008580020742260012262741A46FFF753FC204676
:1008680010BD00BFA80F0A08F8B5194C25684DB986
:100878008420FFF70EFC064618B18422294600F0B2
:1008880096FA2660134D2E684EB98420FFF701FCB6
:10089800074618B18422314600F089FA2F600E4FBE
:1008A800396811F0010611D13846FFF7F6FB68B137
:1008B800226831462B680948FFF7C0FF3846FFF722
:1008C800F1FB074A0749054800F008F90348F8BD55
:1008D800E0030020D8030020DC030020C40300202C
:1008E80068030020C1070A08002211464068FFF784
:1008F800ADBCF0B5164689B011220F46044600215A
:1009080003A800F054FA304600F082FA002500955A
:1009180081B27B6803AA3046FFF75CFC20B1294608
:100928002046FFF775FE03E003A92046FFF75EFEA9
:10093800204609B0F0BD002211464068FFF7A6BC6A
:10094800002211464068FFF7B1BC00224068FFF75B
:10095800A5BC002281F001014068FFF78FBC00238D
:100968001A4619464068FFF781BC002211464068C4
:10097800FFF75CBC002202214068FFF75FBC002340
:100988001A464068FFF74ABC024B04225A60024AE2
:100998001A607047E4030020D80F0A0800231A469B
:1009A8004068FFF73BBC002202214068FFF746BCC5
:1009B800002211464068FFF739BC00221146406802
:1009C800FFF744BC00231A4619464068FFF746BCA7
:1009D80000231A4619464068FFF748BC002281F0F8
:1009E80001014068FFF74ABC00224068FFF756BC87
:1009F800002211464068FFF759BC002211464068A2
:100A0800FFF744BC70B516468EB0044608A8FFF739
:100A1800DFFD1122002103A800F0C9F9304600F0DB
:100A2800F7F900250A4B009581B25B6803AA3046A6
:100A3800FFF7D0FB20B129462046FFF7E9FD03E088
:100A480003A92046FFF7D2FD20460EB070BD00BFB7
:100A5800E4030020024B034A1A6000225A607047E0
:100A6800EC0300200C100A0870B50C4C0C4E0D4D10
:100A780000212046FFF742FC20460B4C324629460F
:100A880000F02CF801212046FFF738FC32462946B1
:100A98002046BDE8704000F021B800BFF4030020F4
:100AA80068030020F5020A080404002013B5084C66
:100AB80000231A46194600932046FFF7BFFD20463B
:100AC800044A054902B0BDE8104000F007B800BF6D
:100AD800180400206803002095050A080B46014603
:100AE800184600F04BB9FFF7D6BA0000184B1A6841
:100AF800D1075CBF01221A60164B1A68D2075CBF87
:100B080001221A60144B1A68D0075CBF01221A60D0
:100B1800124B1A68D1075CBF01221A60104B1A6881
:100B2800D2075CBF01221A600E4B1A68D0075CBF5F
:100B380001221A600C4B1A68D1075CBF01221A60A7
:100B48000A4B1A68D2075CBF01221A60704700BFBF
:100B58004C040020480400204404002040040020E5
:100B68003C04002038040020340400203004002015
:100B7800244B1A68D0075CBF01221A60224B1A68FE
:100B8800D1075CBF01221A60204B1A68D2075CBFEC
:100B980001221A601E4B1A68D0075CBF01221A6036
:100BA8001C4B1A68D1075CBF01221A601A4B1A68DD
:100BB800D2075CBF01221A60184B1A68D0075CBFC5
:100BC80001221A60164B1A68D1075CBF01221A600D
:100BD800144B1A68D2075CBF01221A60124B1A68BC
:100BE800D0075CBF01221A60104B1A68D1075CBF9E
:100BF80001221A600E4B1A68D2075CBF01221A60E4
:100C0800704700BF7C040020780400207404002092
:100C1800700400206C040020680400206404002094
:100C2800600400205C0400205804002054040020C4
:100C380050040020244B1A68D0075CBF01221A60B8
:100C4800224B1A68D1075CBF01221A60204B1A6830
:100C5800D2075CBF01221A601E4B1A68D0075CBF1E
:100C680001221A601C4B1A68D1075CBF01221A6066
:100C78001A4B1A68D2075CBF01221A60184B1A680F
:100C8800D0075CBF01221A60164B1A68D1075CBFF7
:100C980001221A60144B1A68D2075CBF01221A603D
:100CA800124B1A68D0075CBF01221A60104B1A68F1
:100CB800D1075CBF01221A600E4B1A68D2075CBFCD
:100CC80001221A60704700BFAC040020A80400206D
:100CD800A4040020A00400209C0400209804002004
:100CE80094040020900400208C0400208804002034
:100CF8008404002080040020184B1A68D1075CBFC8
:100D080001221A60164B1A68D2075CBF01221A60CA
:100D1800144B1A68D0075CBF01221A60124B1A687C
:100D2800D1075CBF01221A60104B1A68D2075CBF5A
:100D380001221A600E4B1A68D0075CBF01221A60A4
:100D48000C4B1A68D1075CBF01221A600A4B1A685B
:100D5800D2075CBF01221A60704700BFCC04002094
:100D6800C8040020C4040020C0040020BC040020E3
:100D7800B8040020B4040020B004002010B5054CCD
:100D880013462CB10A4601460220AFF3008010BD7D
:100D9800204610BD0000000010B5431E0A449142D1
:100DA80004D011F8014B03F8014FF8E710BD0346D2
:100DB8000244934202D003F8011BFAE7704700008F
:100DC80038B5124B05461C68A36BD3B91820FFF73A
:100DD8007DFA43F20E33A06303804AF6CD33438095
:100DE80041F2342383804EF26D63C3804DF6EC6389
:100DF8000381052343810B23838101220023C0E95A
:100E08000423A36B00221D615A6138BD64030020CE
:100E1800034613F8012B002AFBD1181A0138704732
:100E28001D000A085D000A0889000A088D000A08E2
:100E3800000000000000000000000000F5020A08A1
:100E4800F7020A0866006C6E00666E00636F6465E0
:100E58000064657461696C000D0A002530313075D5
:100E680020005D20002564002C200028293A20005D
:100E7800205B00636F6465203D2000256900646580
:100E88007461696C73203D2000626175640053656C
:100E98007269616C0055534253657269616C310027
:100EA8007479706500706172616D00636D640069CA
:100EB8006400686E64007374726D0066696C740017
:100EC8006C766C0061646448616E646C6572007273
:100ED800656D6F766548616E646C657200656E75E8
:100EE8006D48616E646C657273004A534F4E53745B
:100EF8007265616D4C6F6748616E646C6572006104
:100F08007070006E6F6E6500747261636500696E63
:100F1800666F007761726E006572726F7200706141
:100F28006E696300616C6C005A00252B3033643A9B
:100F3800253032750025592D256D2D2564542548F9
:100F48003A254D3A2553257A0061736374696D65B6
:100F5800000000000000000000000000A5050A08CD
:100F680095050A0897050A0800000000000000001F
:100F780061060A08B1060A08BF060A0845030A08F6
:100F88009D060A0863060A0879060A08AB060A08D5
:100F98008F060A085D060A0800000000000000002D
:100FA800C1070A0811080A081F080A0845030A08A1
:100FB800D5070A08F7070A08E3070A080B080A080A
:100FC800C3070A08C7070A0800000000000000005D
:100FD80087090A087D090A0873090A08F1080A0836
:100FE800EF030A0867090A085B090A0853090A088F
:100FF80049090A083F090A08FB080A080000000016
:1010080000000000A5090A08AF090A08B9090A087A
:10101800C3090A08CD090A08D9090A08E5090A080E
:10102800F1090A08F9090A08030A0A080D0A0A0850
:1010380000000000000000000000000000000000A8
:101048000000000000000000000000000000000098
:101058000000000000000000000000000000000088
:101068000000000000000000000000000000000078
:101078000000000000000000000000000000000068
:101088000000000000000000000000000000000058
:1010980043000000B7000A082D030A08FD030A08E8
:1010A8000D040A0841040A0891090A085D0A0A0899
:1010B800710A0A08B50A0A08F50A0A08790B0A0823
:0810C8003D0C0A08010D0A08A5
:0410D000000000001C
:1010D400510F0A080000000038100A0858100A08C6
:1010E40078100A0800000000000000000000000062
:1010F4000000000098100A08000000000000000032
:1011040000000000000000000000000000000000DB
:1011140000000000000000000000000000000000CB
:1011240000000000000000000000000000000000BB
:0811340000000000040300208C
:10113C00FFFFFFFF00000102030405060708090A70
:10114C000B0C0D0E0F101112131415161718191A6B
:08115C001B1C1D1E1F202800B2
:041164007856341273
:04000005080A0018CD
:00000001FF
